{
  "contractName": "Voting",
  "abi": [
    {
      "inputs": [],
      "stateMutability": "nonpayable",
      "type": "constructor"
    },
    {
      "anonymous": false,
      "inputs": [
        {
          "indexed": true,
          "internalType": "uint256",
          "name": "index",
          "type": "uint256"
        }
      ],
      "name": "NewElection",
      "type": "event"
    },
    {
      "anonymous": false,
      "inputs": [
        {
          "indexed": true,
          "internalType": "uint256",
          "name": "id",
          "type": "uint256"
        },
        {
          "indexed": true,
          "internalType": "address",
          "name": "voter",
          "type": "address"
        }
      ],
      "name": "Voted",
      "type": "event"
    },
    {
      "inputs": [
        {
          "internalType": "uint256",
          "name": "",
          "type": "uint256"
        }
      ],
      "name": "_election",
      "outputs": [
        {
          "internalType": "string",
          "name": "description",
          "type": "string"
        },
        {
          "internalType": "uint256",
          "name": "endTimeOfElecting",
          "type": "uint256"
        },
        {
          "internalType": "enum Voting.ElectionStatus",
          "name": "status",
          "type": "uint8"
        },
        {
          "internalType": "uint256",
          "name": "numberOfVotes",
          "type": "uint256"
        }
      ],
      "stateMutability": "view",
      "type": "function",
      "constant": true
    },
    {
      "inputs": [],
      "name": "totalTime",
      "outputs": [
        {
          "internalType": "uint256",
          "name": "",
          "type": "uint256"
        }
      ],
      "stateMutability": "view",
      "type": "function",
      "constant": true
    },
    {
      "inputs": [
        {
          "internalType": "string",
          "name": "description",
          "type": "string"
        }
      ],
      "name": "createElection",
      "outputs": [
        {
          "internalType": "uint256",
          "name": "",
          "type": "uint256"
        }
      ],
      "stateMutability": "nonpayable",
      "type": "function"
    },
    {
      "inputs": [
        {
          "internalType": "uint256",
          "name": "electionId",
          "type": "uint256"
        },
        {
          "internalType": "address",
          "name": "candidate",
          "type": "address"
        }
      ],
      "name": "vote",
      "outputs": [],
      "stateMutability": "payable",
      "type": "function",
      "payable": true
    },
    {
      "inputs": [
        {
          "internalType": "uint8",
          "name": "electionId",
          "type": "uint8"
        }
      ],
      "name": "informationOf",
      "outputs": [
        {
          "components": [
            {
              "internalType": "string",
              "name": "description",
              "type": "string"
            },
            {
              "internalType": "uint256",
              "name": "endTimeOfElecting",
              "type": "uint256"
            },
            {
              "internalType": "enum Voting.ElectionStatus",
              "name": "status",
              "type": "uint8"
            },
            {
              "internalType": "uint256",
              "name": "numberOfVotes",
              "type": "uint256"
            }
          ],
          "internalType": "struct Voting.Election",
          "name": "election",
          "type": "tuple"
        }
      ],
      "stateMutability": "view",
      "type": "function",
      "constant": true
    },
    {
      "inputs": [
        {
          "internalType": "uint256",
          "name": "electionId",
          "type": "uint256"
        }
      ],
      "name": "finishElection",
      "outputs": [],
      "stateMutability": "nonpayable",
      "type": "function"
    }
  ],
  "bytecode": "0x60806040526203f48060025534801561001757600080fd5b50336000806101000a81548173ffffffffffffffffffffffffffffffffffffffff021916908373ffffffffffffffffffffffffffffffffffffffff1602179055506111f4806100676000396000f3fe6080604052600436106100555760003560e01c806302d947ef1461005a57806315cf4a5f14610076578063201b7761146100b357806358533e0a146100f3578063631f48491461011e578063fb32ff5a1461015b575b600080fd5b610074600480360381019061006f9190610a1b565b610184565b005b34801561008257600080fd5b5061009d60048036038101906100989190610ba1565b61051e565b6040516100aa9190610bf9565b60405180910390f35b3480156100bf57600080fd5b506100da60048036038101906100d59190610c14565b6106b7565b6040516100ea9493929190610d40565b60405180910390f35b3480156100ff57600080fd5b5061010861077c565b6040516101159190610bf9565b60405180910390f35b34801561012a57600080fd5b5061014560048036038101906101409190610dc5565b610782565b6040516101529190610ebd565b60405180910390f35b34801561016757600080fd5b50610182600480360381019061017d9190610c14565b610893565b005b8160015411156101c9576040517f08c379a00000000000000000000000000000000000000000000000000000000081526004016101c090610f2b565b60405180910390fd5b60006004600084815260200190815260200160002090504281600101541015610227576040517f08c379a000000000000000000000000000000000000000000000000000000000815260040161021e90610f97565b60405180910390fd5b6003600084815260200190815260200160002060003373ffffffffffffffffffffffffffffffffffffffff1673ffffffffffffffffffffffffffffffffffffffff16815260200190815260200160002060010160009054906101000a900460ff16156102c8576040517f08c379a00000000000000000000000000000000000000000000000000000000081526004016102bf90611003565b60405180910390fd5b662386f26fc100003410156102dc57600080fd5b6003600084815260200190815260200160002060008373ffffffffffffffffffffffffffffffffffffffff1673ffffffffffffffffffffffffffffffffffffffff168152602001908152602001600020600001600081548092919061034090611052565b919050555060016003600085815260200190815260200160002060008473ffffffffffffffffffffffffffffffffffffffff1673ffffffffffffffffffffffffffffffffffffffff16815260200190815260200160002060010160006101000a81548160ff021916908315150217905550336003600085815260200190815260200160002060008473ffffffffffffffffffffffffffffffffffffffff1673ffffffffffffffffffffffffffffffffffffffff16815260200190815260200160002060010160016101000a81548173ffffffffffffffffffffffffffffffffffffffff021916908373ffffffffffffffffffffffffffffffffffffffff16021790555060046000848152602001908152602001600020600301600081548092919061046a90611052565b9190505550600560003373ffffffffffffffffffffffffffffffffffffffff1673ffffffffffffffffffffffffffffffffffffffff1681526020019081526020016000208390806001815401808255809150506001900390600052602060002001600090919091909150558173ffffffffffffffffffffffffffffffffffffffff16837f030b0f8dcd86a031eddb071f91882edeac8173663ba775713b677b42b51be44b60405160405180910390a3505050565b60003373ffffffffffffffffffffffffffffffffffffffff1660008054906101000a900473ffffffffffffffffffffffffffffffffffffffff1673ffffffffffffffffffffffffffffffffffffffff16146105ae576040517f08c379a00000000000000000000000000000000000000000000000000000000081526004016105a5906110e7565b60405180910390fd5b6000600160008154809291906105c390611052565b9190505590506040518060800160405280848152602001600254426105e89190611107565b8152602001600280811115610600576105ff610cc9565b5b81526020016000815250600460008381526020019081526020016000206000820151816000019080519060200190610639929190610896565b506020820151816001015560408201518160020160006101000a81548160ff0219169083600281111561066f5761066e610cc9565b5b021790555060608201518160030155905050807f7b1e5a99cfb3a21a53448619825447934102f54788cc32f6d17de36564e30a7060405160405180910390a280915050919050565b60046020528060005260406000206000915090508060000180546106da9061118c565b80601f01602080910402602001604051908101604052809291908181526020018280546107069061118c565b80156107535780601f1061072857610100808354040283529160200191610753565b820191906000526020600020905b81548152906001019060200180831161073657829003601f168201915b5050505050908060010154908060020160009054906101000a900460ff16908060030154905084565b60025481565b61078a61091c565b600460008360ff1681526020019081526020016000206040518060800160405290816000820180546107bb9061118c565b80601f01602080910402602001604051908101604052809291908181526020018280546107e79061118c565b80156108345780601f1061080957610100808354040283529160200191610834565b820191906000526020600020905b81548152906001019060200180831161081757829003601f168201915b50505050508152602001600182015481526020016002820160009054906101000a900460ff16600281111561086c5761086b610cc9565b5b600281111561087e5761087d610cc9565b5b81526020016003820154815250509050919050565b50565b8280546108a29061118c565b90600052602060002090601f0160209004810192826108c4576000855561090b565b82601f106108dd57805160ff191683800117855561090b565b8280016001018555821561090b579182015b8281111561090a5782518255916020019190600101906108ef565b5b5090506109189190610956565b5090565b604051806080016040528060608152602001600081526020016000600281111561094957610948610cc9565b5b8152602001600081525090565b5b8082111561096f576000816000905550600101610957565b5090565b6000604051905090565b600080fd5b600080fd5b6000819050919050565b61099a81610987565b81146109a557600080fd5b50565b6000813590506109b781610991565b92915050565b600073ffffffffffffffffffffffffffffffffffffffff82169050919050565b60006109e8826109bd565b9050919050565b6109f8816109dd565b8114610a0357600080fd5b50565b600081359050610a15816109ef565b92915050565b60008060408385031215610a3257610a3161097d565b5b6000610a40858286016109a8565b9250506020610a5185828601610a06565b9150509250929050565b600080fd5b600080fd5b6000601f19601f8301169050919050565b7f4e487b7100000000000000000000000000000000000000000000000000000000600052604160045260246000fd5b610aae82610a65565b810181811067ffffffffffffffff82111715610acd57610acc610a76565b5b80604052505050565b6000610ae0610973565b9050610aec8282610aa5565b919050565b600067ffffffffffffffff821115610b0c57610b0b610a76565b5b610b1582610a65565b9050602081019050919050565b82818337600083830152505050565b6000610b44610b3f84610af1565b610ad6565b905082815260208101848484011115610b6057610b5f610a60565b5b610b6b848285610b22565b509392505050565b600082601f830112610b8857610b87610a5b565b5b8135610b98848260208601610b31565b91505092915050565b600060208284031215610bb757610bb661097d565b5b600082013567ffffffffffffffff811115610bd557610bd4610982565b5b610be184828501610b73565b91505092915050565b610bf381610987565b82525050565b6000602082019050610c0e6000830184610bea565b92915050565b600060208284031215610c2a57610c2961097d565b5b6000610c38848285016109a8565b91505092915050565b600081519050919050565b600082825260208201905092915050565b60005b83811015610c7b578082015181840152602081019050610c60565b83811115610c8a576000848401525b50505050565b6000610c9b82610c41565b610ca58185610c4c565b9350610cb5818560208601610c5d565b610cbe81610a65565b840191505092915050565b7f4e487b7100000000000000000000000000000000000000000000000000000000600052602160045260246000fd5b60038110610d0957610d08610cc9565b5b50565b6000819050610d1a82610cf8565b919050565b6000610d2a82610d0c565b9050919050565b610d3a81610d1f565b82525050565b60006080820190508181036000830152610d5a8187610c90565b9050610d696020830186610bea565b610d766040830185610d31565b610d836060830184610bea565b95945050505050565b600060ff82169050919050565b610da281610d8c565b8114610dad57600080fd5b50565b600081359050610dbf81610d99565b92915050565b600060208284031215610ddb57610dda61097d565b5b6000610de984828501610db0565b91505092915050565b600082825260208201905092915050565b6000610e0e82610c41565b610e188185610df2565b9350610e28818560208601610c5d565b610e3181610a65565b840191505092915050565b610e4581610987565b82525050565b610e5481610d1f565b82525050565b60006080830160008301518482036000860152610e778282610e03565b9150506020830151610e8c6020860182610e3c565b506040830151610e9f6040860182610e4b565b506060830151610eb26060860182610e3c565b508091505092915050565b60006020820190508181036000830152610ed78184610e5a565b905092915050565b7f566f74696e6720646f6573206e6f742065786973740000000000000000000000600082015250565b6000610f15601583610c4c565b9150610f2082610edf565b602082019050919050565b60006020820190508181036000830152610f4481610f08565b9050919050565b7f54686520766f74696e67206973206f7665720000000000000000000000000000600082015250565b6000610f81601283610c4c565b9150610f8c82610f4b565b602082019050919050565b60006020820190508181036000830152610fb081610f74565b9050919050565b7f6861766520796f7520616c726561647920766f74656400000000000000000000600082015250565b6000610fed601683610c4c565b9150610ff882610fb7565b602082019050919050565b6000602082019050818103600083015261101c81610fe0565b9050919050565b7f4e487b7100000000000000000000000000000000000000000000000000000000600052601160045260246000fd5b600061105d82610987565b91507fffffffffffffffffffffffffffffffffffffffffffffffffffffffffffffffff8214156110905761108f611023565b5b600182019050919050565b7f4e6f206163636573730000000000000000000000000000000000000000000000600082015250565b60006110d1600983610c4c565b91506110dc8261109b565b602082019050919050565b60006020820190508181036000830152611100816110c4565b9050919050565b600061111282610987565b915061111d83610987565b9250827fffffffffffffffffffffffffffffffffffffffffffffffffffffffffffffffff0382111561115257611151611023565b5b828201905092915050565b7f4e487b7100000000000000000000000000000000000000000000000000000000600052602260045260246000fd5b600060028204905060018216806111a457607f821691505b602082108114156111b8576111b761115d565b5b5091905056fea26469706673582212209e8ff6922571f425370635eae2d13d6d74b2980ee3dda961e003246966b5981c64736f6c634300080b0033",
  "immutableReferences": {},
  "source": "// SPDX-License-Identifier: MIT\npragma solidity >=0.4.22 <0.9.0;\n\ncontract Voting {\n  address owner;\n\n  uint256 private _currentElectionId;\n  uint256 public totalTime = 3 days;\n\n  constructor()  {\n    owner = msg.sender;\n  }\n\n  mapping(uint256 => mapping(address => Vote)) private _votes;\n  mapping(uint256 => Election) public _election;\n  mapping(address => uint256[]) private _userVotes;\n\n  modifier requireOwner() {\n    require(owner == msg.sender, \"No access\");\n    _;\n  }\n\n  enum ElectionStatus {\n    SUCCESSFUL,\n    UNSUCCESSFUL,\n    ACTIVE\n  }\n\n  event NewElection(uint256 indexed index);\n  event Voted(uint indexed id, address indexed voter);\n\n  struct Vote {\n    uint256 voteNum;\n    bool isVoted;\n    address candidateAddress;\n  }\n\n  struct Election {\n    string description;\n    uint256 endTimeOfElecting;\n    ElectionStatus status;\n    uint256 numberOfVotes;\n  }\n\n  function createElection(string memory description) public requireOwner returns (uint256){\n    uint256 electionId =_currentElectionId++;\n    _election[electionId] = Election({\n      description: description,\n      endTimeOfElecting: block.timestamp + totalTime,\n      status: ElectionStatus.ACTIVE,\n      numberOfVotes: 0\n    });\n    emit NewElection(electionId);\n    return electionId;\n  }\n\n  function vote(uint electionId, address candidate) public payable {\n    require(_currentElectionId <= electionId, \"Voting does not exist\");\n    Election storage election = _election[electionId];\n    require(election.endTimeOfElecting >= block.timestamp,\"The voting is over\");\n    require(!_votes[electionId][msg.sender].isVoted,\"have you already voted\");\n    require(msg.value >= .01 ether);\n\n    _votes[electionId][candidate].voteNum ++;\n    _votes[electionId][candidate].isVoted = true;\n    _votes[electionId][candidate].candidateAddress = msg.sender;\n\n    _election[electionId].numberOfVotes++;\n\n    _userVotes[msg.sender].push(electionId);\n\n    emit Voted(electionId, candidate);\n  }\n\n  //    \n  function informationOf(uint8 electionId) external view returns (Election memory election){\n    return _election[electionId];\n  }\n\n  //\n  function finishElection(uint256 electionId) external {\n\n  }\n\n    \n}",
  "sourcePath": "C:\\Users\\inin_\\Documents\\VS Code\\Voting\\contracts\\Voting.sol",
  "compiler": {
    "name": "solc",
    "version": "0.8.11+commit.d7f03943.Emscripten.clang"
  },
  "schemaVersion": "3.4.4",
  "updatedAt": "2022-03-27T08:54:44.781Z",
  "networkType": "ethereum",
  "devdoc": {
    "kind": "dev",
    "methods": {},
    "version": 1
  },
  "userdoc": {
    "kind": "user",
    "methods": {},
    "version": 1
  }
}