{
  "contractName": "Voting",
  "abi": [
    {
      "inputs": [],
      "stateMutability": "nonpayable",
      "type": "constructor"
    },
    {
      "anonymous": false,
      "inputs": [
        {
          "indexed": true,
          "internalType": "uint256",
          "name": "candidateId",
          "type": "uint256"
        }
      ],
      "name": "votedEvent",
      "type": "event"
    },
    {
      "inputs": [
        {
          "internalType": "uint256",
          "name": "",
          "type": "uint256"
        }
      ],
      "name": "candidates",
      "outputs": [
        {
          "internalType": "uint256",
          "name": "id",
          "type": "uint256"
        },
        {
          "internalType": "string",
          "name": "name",
          "type": "string"
        },
        {
          "internalType": "uint256",
          "name": "totalVotes",
          "type": "uint256"
        }
      ],
      "stateMutability": "view",
      "type": "function",
      "constant": true
    },
    {
      "inputs": [],
      "name": "owner",
      "outputs": [
        {
          "internalType": "address",
          "name": "",
          "type": "address"
        }
      ],
      "stateMutability": "view",
      "type": "function",
      "constant": true
    },
    {
      "inputs": [],
      "name": "time",
      "outputs": [],
      "stateMutability": "nonpayable",
      "type": "function"
    },
    {
      "inputs": [],
      "name": "getTimerLeft",
      "outputs": [
        {
          "internalType": "uint256",
          "name": "",
          "type": "uint256"
        }
      ],
      "stateMutability": "view",
      "type": "function",
      "constant": true
    },
    {
      "inputs": [],
      "name": "startVote",
      "outputs": [],
      "stateMutability": "nonpayable",
      "type": "function"
    },
    {
      "inputs": [
        {
          "internalType": "string",
          "name": "new_name",
          "type": "string"
        }
      ],
      "name": "addCandidate",
      "outputs": [],
      "stateMutability": "nonpayable",
      "type": "function"
    },
    {
      "inputs": [
        {
          "internalType": "uint256",
          "name": "candidateId",
          "type": "uint256"
        }
      ],
      "name": "vote",
      "outputs": [],
      "stateMutability": "payable",
      "type": "function",
      "payable": true
    },
    {
      "inputs": [
        {
          "internalType": "uint256",
          "name": "candidateId",
          "type": "uint256"
        }
      ],
      "name": "showVotes",
      "outputs": [
        {
          "internalType": "uint256",
          "name": "",
          "type": "uint256"
        }
      ],
      "stateMutability": "view",
      "type": "function",
      "constant": true
    },
    {
      "inputs": [],
      "name": "searchMax",
      "outputs": [],
      "stateMutability": "nonpayable",
      "type": "function"
    },
    {
      "inputs": [],
      "name": "withdrawCommission",
      "outputs": [],
      "stateMutability": "nonpayable",
      "type": "function"
    }
  ],
  "bytecode": "0x6080604052620151806004556000600560006101000a81548160ff02191690831515021790555034801561003257600080fd5b50336000806101000a81548173ffffffffffffffffffffffffffffffffffffffff021916908373ffffffffffffffffffffffffffffffffffffffff160217905550610d92806100826000396000f3fe6080604052600436106100915760003560e01c8063462e91ec11610059578063462e91ec1461014a5780634c0a6af0146101735780636687d4fe1461018a5780636fcbf2bb146101c75780638da5cb5b146101de57610091565b80630121b93f1461009657806316ada547146100b25780631c266227146100c95780633477ee2e146100f45780633e25e83714610133575b600080fd5b6100b060048036038101906100ab9190610819565b610209565b005b3480156100be57600080fd5b506100c7610343565b005b3480156100d557600080fd5b506100de610415565b6040516100eb9190610855565b60405180910390f35b34801561010057600080fd5b5061011b60048036038101906101169190610819565b61046f565b60405161012a93929190610909565b60405180910390f35b34801561013f57600080fd5b50610148610521565b005b34801561015657600080fd5b50610171600480360381019061016c9190610a7c565b610523565b005b34801561017f57600080fd5b50610188610633565b005b34801561019657600080fd5b506101b160048036038101906101ac9190610819565b6106e6565b6040516101be9190610855565b60405180910390f35b3480156101d357600080fd5b506101dc610706565b005b3480156101ea57600080fd5b506101f3610708565b6040516102009190610b06565b60405180910390f35b60008111801561021b57506001548111155b61022457600080fd5b600760003373ffffffffffffffffffffffffffffffffffffffff1673ffffffffffffffffffffffffffffffffffffffff16815260200190815260200160002060009054906101000a900460ff161561027b57600080fd5b662386f26fc1000034101561028f57600080fd5b6001600760003373ffffffffffffffffffffffffffffffffffffffff1673ffffffffffffffffffffffffffffffffffffffff16815260200190815260200160002060006101000a81548160ff02191690831515021790555060066000828152602001908152602001600020600201600081548092919061030e90610b50565b9190505550807ffff3c900d938d21d0990d786e819f29b8d05c1ef587b462b939609625b684b1660405160405180910390a250565b3373ffffffffffffffffffffffffffffffffffffffff1660008054906101000a900473ffffffffffffffffffffffffffffffffffffffff1673ffffffffffffffffffffffffffffffffffffffff16146103d1576040517f08c379a00000000000000000000000000000000000000000000000000000000081526004016103c890610be5565b60405180910390fd5b426003819055506003546004546103e89190610c05565b6002819055506002544211610413576001600560006101000a81548160ff0219169083151502179055505b565b600060025442111561045c576040517f08c379a000000000000000000000000000000000000000000000000000000000815260040161045390610ca7565b60405180910390fd5b4260025461046a9190610cc7565b905090565b600660205280600052604060002060009150905080600001549080600101805461049890610d2a565b80601f01602080910402602001604051908101604052809291908181526020018280546104c490610d2a565b80156105115780601f106104e657610100808354040283529160200191610511565b820191906000526020600020905b8154815290600101906020018083116104f457829003601f168201915b5050505050908060020154905083565b565b3373ffffffffffffffffffffffffffffffffffffffff1660008054906101000a900473ffffffffffffffffffffffffffffffffffffffff1673ffffffffffffffffffffffffffffffffffffffff16146105b1576040517f08c379a00000000000000000000000000000000000000000000000000000000081526004016105a890610be5565b60405180910390fd5b600160008154809291906105c490610b50565b919050555060405180606001604052806001548152602001828152602001600081525060066000600154815260200190815260200160002060008201518160000155602082015181600101908051906020019061062292919061072c565b506040820151816002015590505050565b3373ffffffffffffffffffffffffffffffffffffffff1660008054906101000a900473ffffffffffffffffffffffffffffffffffffffff1673ffffffffffffffffffffffffffffffffffffffff16146106c1576040517f08c379a00000000000000000000000000000000000000000000000000000000081526004016106b890610be5565b60405180910390fd5b6000600560006101000a81548160ff0219169083151502179055506106e4610343565b565b600060066000838152602001908152602001600020600201549050919050565b565b60008054906101000a900473ffffffffffffffffffffffffffffffffffffffff1681565b82805461073890610d2a565b90600052602060002090601f01602090048101928261075a57600085556107a1565b82601f1061077357805160ff19168380011785556107a1565b828001600101855582156107a1579182015b828111156107a0578251825591602001919060010190610785565b5b5090506107ae91906107b2565b5090565b5b808211156107cb5760008160009055506001016107b3565b5090565b6000604051905090565b600080fd5b600080fd5b6000819050919050565b6107f6816107e3565b811461080157600080fd5b50565b600081359050610813816107ed565b92915050565b60006020828403121561082f5761082e6107d9565b5b600061083d84828501610804565b91505092915050565b61084f816107e3565b82525050565b600060208201905061086a6000830184610846565b92915050565b600081519050919050565b600082825260208201905092915050565b60005b838110156108aa57808201518184015260208101905061088f565b838111156108b9576000848401525b50505050565b6000601f19601f8301169050919050565b60006108db82610870565b6108e5818561087b565b93506108f581856020860161088c565b6108fe816108bf565b840191505092915050565b600060608201905061091e6000830186610846565b818103602083015261093081856108d0565b905061093f6040830184610846565b949350505050565b600080fd5b600080fd5b7f4e487b7100000000000000000000000000000000000000000000000000000000600052604160045260246000fd5b610989826108bf565b810181811067ffffffffffffffff821117156109a8576109a7610951565b5b80604052505050565b60006109bb6107cf565b90506109c78282610980565b919050565b600067ffffffffffffffff8211156109e7576109e6610951565b5b6109f0826108bf565b9050602081019050919050565b82818337600083830152505050565b6000610a1f610a1a846109cc565b6109b1565b905082815260208101848484011115610a3b57610a3a61094c565b5b610a468482856109fd565b509392505050565b600082601f830112610a6357610a62610947565b5b8135610a73848260208601610a0c565b91505092915050565b600060208284031215610a9257610a916107d9565b5b600082013567ffffffffffffffff811115610ab057610aaf6107de565b5b610abc84828501610a4e565b91505092915050565b600073ffffffffffffffffffffffffffffffffffffffff82169050919050565b6000610af082610ac5565b9050919050565b610b0081610ae5565b82525050565b6000602082019050610b1b6000830184610af7565b92915050565b7f4e487b7100000000000000000000000000000000000000000000000000000000600052601160045260246000fd5b6000610b5b826107e3565b91507fffffffffffffffffffffffffffffffffffffffffffffffffffffffffffffffff821415610b8e57610b8d610b21565b5b600182019050919050565b7f4e6f206163636573730000000000000000000000000000000000000000000000600082015250565b6000610bcf60098361087b565b9150610bda82610b99565b602082019050919050565b60006020820190508181036000830152610bfe81610bc2565b9050919050565b6000610c10826107e3565b9150610c1b836107e3565b9250827fffffffffffffffffffffffffffffffffffffffffffffffffffffffffffffffff03821115610c5057610c4f610b21565b5b828201905092915050565b7f566f74696e672074696d652069732075702e0000000000000000000000000000600082015250565b6000610c9160128361087b565b9150610c9c82610c5b565b602082019050919050565b60006020820190508181036000830152610cc081610c84565b9050919050565b6000610cd2826107e3565b9150610cdd836107e3565b925082821015610cf057610cef610b21565b5b828203905092915050565b7f4e487b7100000000000000000000000000000000000000000000000000000000600052602260045260246000fd5b60006002820490506001821680610d4257607f821691505b60208210811415610d5657610d55610cfb565b5b5091905056fea2646970667358221220c92f571133b3288097ed2fae65de9abe1c039bf1d3bb91f7a5854a5ab6d1c40764736f6c634300080b0033",
  "immutableReferences": {},
  "source": "// SPDX-License-Identifier: MIT\npragma solidity >=0.4.22 <0.9.0;\n\ncontract Voting {\n  constructor()  {\n    owner = msg.sender;\n  }\n\n  address public owner;\n  uint private Count;\n  uint _end;\n  uint _start;\n  uint totalTime = 86400;\n  bool timesUp = false;\n\n\n  //uint public votingTime = 72;\n\n  struct Candidate {\n    uint id;\n    string name;\n    uint totalVotes;\n  }\n\n  mapping(uint => Candidate) public candidates;\n  mapping(address => bool) private voters;\n\n  event votedEvent (\n    uint indexed candidateId\n  );\n\n  modifier requireOwner() {\n    require(owner == msg.sender, \"No access\");\n    _;\n  }\n\n  modifier timerOver() {\n    require(block.timestamp<=_end, \"Voting time is up.\");\n    _;\n  }\n\n  function time ()  public requireOwner{\n    _start = block.timestamp;\n    _end = totalTime+_start;\n    if (block.timestamp<=_end)\n    timesUp = true;\n    \n  }\n\n  function getTimerLeft() public timerOver view returns(uint) {\n    return _end - block.timestamp;\n  }\n\n  function startVote() public requireOwner {\n    timesUp = false;\n    time();\n  }\n\n  function addCandidate(string memory new_name) public requireOwner {\n    Count ++;\n    candidates[Count] = Candidate(Count, new_name, 0);\n  }\n\n  function vote (uint candidateId) public payable {\n    require(candidateId > 0 && candidateId <= Count);\n    require(!voters[msg.sender]);\n    require(msg.value >= .01 ether);\n    voters[msg.sender] = true;\n    candidates[candidateId].totalVotes++;\n    emit votedEvent(candidateId);\n  }\n\n  function showVotes(uint candidateId) public view returns  (uint) {\n    return candidates[candidateId].totalVotes;\n  }\n\n  function searchMax() public {\n    \n  }\n\n  function withdrawCommission () public {\n\n  }\n  \n  //TO DO:  \n  /*function endOfVoting (address payable _to) public  {\n    if(timesUp = true){\n      _to.transfer(address));\n    }\n  }*/\n }\n",
  "sourcePath": "C:\\Users\\inin_\\Documents\\VS Code\\Voting\\contracts\\Voting.sol",
  "compiler": {
    "name": "solc",
    "version": "0.8.11+commit.d7f03943.Emscripten.clang"
  },
  "schemaVersion": "3.4.4",
  "updatedAt": "2022-03-25T10:34:26.095Z",
  "networkType": "ethereum",
  "devdoc": {
    "kind": "dev",
    "methods": {},
    "version": 1
  },
  "userdoc": {
    "kind": "user",
    "methods": {},
    "version": 1
  }
}