{
  "contractName": "Voting",
  "abi": [
    {
      "inputs": [],
      "stateMutability": "nonpayable",
      "type": "constructor"
    },
    {
      "anonymous": false,
      "inputs": [
        {
          "indexed": true,
          "internalType": "uint256",
          "name": "id",
          "type": "uint256"
        },
        {
          "indexed": false,
          "internalType": "enum Voting.ElectionStatus",
          "name": "electionStatus",
          "type": "uint8"
        }
      ],
      "name": "ElectionFinished",
      "type": "event"
    },
    {
      "anonymous": false,
      "inputs": [
        {
          "indexed": true,
          "internalType": "uint256",
          "name": "index",
          "type": "uint256"
        }
      ],
      "name": "NewElection",
      "type": "event"
    },
    {
      "anonymous": false,
      "inputs": [
        {
          "indexed": true,
          "internalType": "uint256",
          "name": "id",
          "type": "uint256"
        },
        {
          "indexed": true,
          "internalType": "address",
          "name": "voter",
          "type": "address"
        }
      ],
      "name": "Voted",
      "type": "event"
    },
    {
      "anonymous": false,
      "inputs": [
        {
          "indexed": true,
          "internalType": "address",
          "name": "account",
          "type": "address"
        },
        {
          "indexed": false,
          "internalType": "uint256",
          "name": "amount",
          "type": "uint256"
        }
      ],
      "name": "Withdraw",
      "type": "event"
    },
    {
      "inputs": [
        {
          "internalType": "uint256",
          "name": "",
          "type": "uint256"
        },
        {
          "internalType": "uint256",
          "name": "",
          "type": "uint256"
        }
      ],
      "name": "_candidate",
      "outputs": [
        {
          "internalType": "string",
          "name": "name",
          "type": "string"
        },
        {
          "internalType": "address payable",
          "name": "candidateAddress",
          "type": "address"
        },
        {
          "internalType": "uint256",
          "name": "numberVotes",
          "type": "uint256"
        },
        {
          "internalType": "bool",
          "name": "asd",
          "type": "bool"
        }
      ],
      "stateMutability": "view",
      "type": "function"
    },
    {
      "inputs": [
        {
          "internalType": "uint256",
          "name": "",
          "type": "uint256"
        }
      ],
      "name": "_election",
      "outputs": [
        {
          "internalType": "string",
          "name": "description",
          "type": "string"
        },
        {
          "internalType": "uint256",
          "name": "endTimeOfElecting",
          "type": "uint256"
        },
        {
          "internalType": "enum Voting.ElectionStatus",
          "name": "status",
          "type": "uint8"
        },
        {
          "internalType": "uint256",
          "name": "numberOfVotes",
          "type": "uint256"
        },
        {
          "internalType": "uint256",
          "name": "numberOfCandidate",
          "type": "uint256"
        },
        {
          "internalType": "uint256",
          "name": "deposit",
          "type": "uint256"
        },
        {
          "internalType": "uint256",
          "name": "comission",
          "type": "uint256"
        }
      ],
      "stateMutability": "view",
      "type": "function"
    },
    {
      "inputs": [
        {
          "internalType": "uint256",
          "name": "",
          "type": "uint256"
        },
        {
          "internalType": "address",
          "name": "",
          "type": "address"
        }
      ],
      "name": "_votes",
      "outputs": [
        {
          "internalType": "bool",
          "name": "isVoted",
          "type": "bool"
        }
      ],
      "stateMutability": "view",
      "type": "function"
    },
    {
      "inputs": [],
      "name": "endTime",
      "outputs": [
        {
          "internalType": "uint256",
          "name": "",
          "type": "uint256"
        }
      ],
      "stateMutability": "view",
      "type": "function"
    },
    {
      "inputs": [],
      "name": "maxVotes",
      "outputs": [
        {
          "internalType": "uint256",
          "name": "",
          "type": "uint256"
        }
      ],
      "stateMutability": "view",
      "type": "function"
    },
    {
      "inputs": [],
      "name": "owner",
      "outputs": [
        {
          "internalType": "address",
          "name": "",
          "type": "address"
        }
      ],
      "stateMutability": "view",
      "type": "function"
    },
    {
      "inputs": [],
      "name": "totalTime",
      "outputs": [
        {
          "internalType": "uint256",
          "name": "",
          "type": "uint256"
        }
      ],
      "stateMutability": "view",
      "type": "function"
    },
    {
      "inputs": [
        {
          "internalType": "string",
          "name": "description",
          "type": "string"
        }
      ],
      "name": "createElection",
      "outputs": [
        {
          "internalType": "uint256",
          "name": "",
          "type": "uint256"
        }
      ],
      "stateMutability": "nonpayable",
      "type": "function"
    },
    {
      "inputs": [
        {
          "internalType": "uint256",
          "name": "electionId",
          "type": "uint256"
        },
        {
          "internalType": "string",
          "name": "_name",
          "type": "string"
        },
        {
          "internalType": "address payable",
          "name": "_adrCandidate",
          "type": "address"
        }
      ],
      "name": "addCandidate",
      "outputs": [],
      "stateMutability": "nonpayable",
      "type": "function"
    },
    {
      "inputs": [
        {
          "internalType": "uint256",
          "name": "electionId",
          "type": "uint256"
        },
        {
          "internalType": "uint256",
          "name": "candidate",
          "type": "uint256"
        }
      ],
      "name": "vote",
      "outputs": [],
      "stateMutability": "payable",
      "type": "function"
    },
    {
      "inputs": [
        {
          "internalType": "uint256",
          "name": "electionId",
          "type": "uint256"
        }
      ],
      "name": "listCandidate",
      "outputs": [
        {
          "internalType": "string[]",
          "name": "",
          "type": "string[]"
        }
      ],
      "stateMutability": "nonpayable",
      "type": "function"
    },
    {
      "inputs": [
        {
          "internalType": "uint256",
          "name": "elactionID",
          "type": "uint256"
        }
      ],
      "name": "timeLeft",
      "outputs": [
        {
          "internalType": "uint256",
          "name": "",
          "type": "uint256"
        }
      ],
      "stateMutability": "nonpayable",
      "type": "function"
    },
    {
      "inputs": [
        {
          "internalType": "uint8",
          "name": "electionId",
          "type": "uint8"
        },
        {
          "internalType": "uint256",
          "name": "candidate",
          "type": "uint256"
        }
      ],
      "name": "infCandidate",
      "outputs": [
        {
          "components": [
            {
              "internalType": "string",
              "name": "name",
              "type": "string"
            },
            {
              "internalType": "address payable",
              "name": "candidateAddress",
              "type": "address"
            },
            {
              "internalType": "uint256",
              "name": "numberVotes",
              "type": "uint256"
            },
            {
              "internalType": "bool",
              "name": "asd",
              "type": "bool"
            }
          ],
          "internalType": "struct Voting.Candidate",
          "name": "candidates",
          "type": "tuple"
        }
      ],
      "stateMutability": "view",
      "type": "function"
    },
    {
      "inputs": [
        {
          "internalType": "uint8",
          "name": "electionId",
          "type": "uint8"
        },
        {
          "internalType": "address",
          "name": "voter",
          "type": "address"
        }
      ],
      "name": "infVoter",
      "outputs": [
        {
          "components": [
            {
              "internalType": "bool",
              "name": "isVoted",
              "type": "bool"
            }
          ],
          "internalType": "struct Voting.Vote",
          "name": "votes",
          "type": "tuple"
        }
      ],
      "stateMutability": "view",
      "type": "function"
    },
    {
      "inputs": [
        {
          "internalType": "uint8",
          "name": "electionId",
          "type": "uint8"
        }
      ],
      "name": "infElaction",
      "outputs": [
        {
          "components": [
            {
              "internalType": "string",
              "name": "description",
              "type": "string"
            },
            {
              "internalType": "uint256",
              "name": "endTimeOfElecting",
              "type": "uint256"
            },
            {
              "internalType": "enum Voting.ElectionStatus",
              "name": "status",
              "type": "uint8"
            },
            {
              "internalType": "uint256",
              "name": "numberOfVotes",
              "type": "uint256"
            },
            {
              "internalType": "uint256",
              "name": "numberOfCandidate",
              "type": "uint256"
            },
            {
              "internalType": "string[]",
              "name": "listCandidate",
              "type": "string[]"
            },
            {
              "internalType": "uint256",
              "name": "deposit",
              "type": "uint256"
            },
            {
              "internalType": "uint256",
              "name": "comission",
              "type": "uint256"
            }
          ],
          "internalType": "struct Voting.Election",
          "name": "election",
          "type": "tuple"
        }
      ],
      "stateMutability": "view",
      "type": "function"
    },
    {
      "inputs": [
        {
          "internalType": "uint256",
          "name": "electionId",
          "type": "uint256"
        },
        {
          "internalType": "address payable",
          "name": "_to",
          "type": "address"
        }
      ],
      "name": "withdrawComission",
      "outputs": [],
      "stateMutability": "nonpayable",
      "type": "function"
    },
    {
      "inputs": [
        {
          "internalType": "uint256",
          "name": "electionId",
          "type": "uint256"
        }
      ],
      "name": "finishElection",
      "outputs": [],
      "stateMutability": "nonpayable",
      "type": "function"
    }
  ],
  "bytecode": "0x60806040526203f48060035534801561001757600080fd5b50336000806101000a81548173ffffffffffffffffffffffffffffffffffffffff021916908373ffffffffffffffffffffffffffffffffffffffff160217905550612c0d806100676000396000f3fe6080604052600436106100fe5760003560e01c8063777c3acf11610095578063b384abef11610064578063b384abef1461038c578063b92e8d71146103a8578063d238d173146103d1578063e9b07a851461040e578063fb32ff5a1461044b576100fe565b8063777c3acf146102bc5780638da5cb5b146102e75780639432112e14610312578063a60e71f51461034f576100fe565b806341403d30116100d157806341403d30146101ee57806347cb7a681461021757806354e3192a1461025457806358533e0a14610291576100fe565b806315cf4a5f14610103578063201b77611461014057806329e6e5d8146101835780633197cbb6146101c3575b600080fd5b34801561010f57600080fd5b5061012a60048036038101906101259190611c19565b610474565b6040516101379190611c7b565b60405180910390f35b34801561014c57600080fd5b5061016760048036038101906101629190611cc2565b6105c9565b60405161017a9796959493929190611dee565b60405180910390f35b34801561018f57600080fd5b506101aa60048036038101906101a59190611e64565b6106a0565b6040516101ba9493929190611f00565b60405180910390f35b3480156101cf57600080fd5b506101d8610792565b6040516101e59190611c7b565b60405180910390f35b3480156101fa57600080fd5b5061021560048036038101906102109190611f78565b610798565b005b34801561022357600080fd5b5061023e60048036038101906102399190611cc2565b610a64565b60405161024b9190611c7b565b60405180910390f35b34801561026057600080fd5b5061027b6004803603810190610276919061205e565b610a98565b60405161028891906120c9565b60405180910390f35b34801561029d57600080fd5b506102a6610b21565b6040516102b39190611c7b565b60405180910390f35b3480156102c857600080fd5b506102d1610b27565b6040516102de9190611c7b565b60405180910390f35b3480156102f357600080fd5b506102fc610b2d565b60405161030991906120f3565b60405180910390f35b34801561031e57600080fd5b506103396004803603810190610334919061210e565b610b51565b6040516103469190612219565b60405180910390f35b34801561035b57600080fd5b506103766004803603810190610371919061223b565b610ca0565b604051610383919061227b565b60405180910390f35b6103a660048036038101906103a19190611e64565b610cd8565b005b3480156103b457600080fd5b506103cf60048036038101906103ca9190612296565b610fb1565b005b3480156103dd57600080fd5b506103f860048036038101906103f39190611cc2565b611146565b6040516104059190612398565b60405180910390f35b34801561041a57600080fd5b50610435600480360381019061043091906123ba565b6112e4565b6040516104429190612533565b60405180910390f35b34801561045757600080fd5b50610472600480360381019061046d9190611cc2565b6114ed565b005b60003373ffffffffffffffffffffffffffffffffffffffff1660008054906101000a900473ffffffffffffffffffffffffffffffffffffffff1673ffffffffffffffffffffffffffffffffffffffff1614610504576040517f08c379a00000000000000000000000000000000000000000000000000000000081526004016104fb906125a1565b60405180910390fd5b600060026000815480929190610519906125f0565b91905055905060006008600083815260200190815260200160002090508381600001908051906020019061054e9291906118e3565b506003544261055d9190612639565b816001018190555060018160020160006101000a81548160ff0219169083600181111561058d5761058c611d77565b5b0217905550817f7b1e5a99cfb3a21a53448619825447934102f54788cc32f6d17de36564e30a7060405160405180910390a28192505050919050565b60086020528060005260406000206000915090508060000180546105ec906126be565b80601f0160208091040260200160405190810160405280929190818152602001828054610618906126be565b80156106655780601f1061063a57610100808354040283529160200191610665565b820191906000526020600020905b81548152906001019060200180831161064857829003601f168201915b5050505050908060010154908060020160009054906101000a900460ff16908060030154908060040154908060060154908060070154905087565b6007602052816000526040600020602052806000526040600020600091509150508060000180546106d0906126be565b80601f01602080910402602001604051908101604052809291908181526020018280546106fc906126be565b80156107495780601f1061071e57610100808354040283529160200191610749565b820191906000526020600020905b81548152906001019060200180831161072c57829003601f168201915b5050505050908060010160009054906101000a900473ffffffffffffffffffffffffffffffffffffffff16908060020154908060030160009054906101000a900460ff16905084565b60045481565b6001808111156107ab576107aa611d77565b5b6008600085815260200190815260200160002060020160009054906101000a900460ff1660018111156107e1576107e0611d77565b5b14610821576040517f08c379a00000000000000000000000000000000000000000000000000000000081526004016108189061273c565b60405180910390fd5b426008600085815260200190815260200160002060010154101561087a576040517f08c379a0000000000000000000000000000000000000000000000000000000008152600401610871906127a8565b60405180910390fd5b60005b60086000858152602001908152602001600020600401548110156109645760076000858152602001908152602001600020600082815260200190815260200160002060010160009054906101000a900473ffffffffffffffffffffffffffffffffffffffff1673ffffffffffffffffffffffffffffffffffffffff168273ffffffffffffffffffffffffffffffffffffffff161415610951576040517f08c379a000000000000000000000000000000000000000000000000000000000815260040161094890612814565b60405180910390fd5b808061095c906125f0565b91505061087d565b50816007600085815260200190815260200160002060006008600087815260200190815260200160002060040154815260200190815260200160002060000190805190602001906109b69291906118e3565b50806007600085815260200190815260200160002060006008600087815260200190815260200160002060040154815260200190815260200160002060010160006101000a81548173ffffffffffffffffffffffffffffffffffffffff021916908373ffffffffffffffffffffffffffffffffffffffff160217905550600860008481526020019081526020016000206004016000815480929190610a5a906125f0565b9190505550505050565b6000426008600084815260200190815260200160002060010154610a889190612834565b6004819055506004549050919050565b610aa0611969565b600660008460ff16815260200190815260200160002060008373ffffffffffffffffffffffffffffffffffffffff1673ffffffffffffffffffffffffffffffffffffffff1681526020019081526020016000206040518060200160405290816000820160009054906101000a900460ff161515151581525050905092915050565b60035481565b60055481565b60008054906101000a900473ffffffffffffffffffffffffffffffffffffffff1681565b610b5961197e565b600760008460ff1681526020019081526020016000206000838152602001908152602001600020604051806080016040529081600082018054610b9b906126be565b80601f0160208091040260200160405190810160405280929190818152602001828054610bc7906126be565b8015610c145780601f10610be957610100808354040283529160200191610c14565b820191906000526020600020905b815481529060010190602001808311610bf757829003601f168201915b505050505081526020016001820160009054906101000a900473ffffffffffffffffffffffffffffffffffffffff1673ffffffffffffffffffffffffffffffffffffffff1673ffffffffffffffffffffffffffffffffffffffff168152602001600282015481526020016003820160009054906101000a900460ff161515151581525050905092915050565b6006602052816000526040600020602052806000526040600020600091509150508060000160009054906101000a900460ff16905081565b816002541015610d1d576040517f08c379a0000000000000000000000000000000000000000000000000000000008152600401610d14906128b4565b60405180910390fd5b60006008600084815260200190815260200160002090504281600101541015610d7b576040517f08c379a0000000000000000000000000000000000000000000000000000000008152600401610d7290612920565b60405180910390fd5b6006600084815260200190815260200160002060003373ffffffffffffffffffffffffffffffffffffffff1673ffffffffffffffffffffffffffffffffffffffff16815260200190815260200160002060000160009054906101000a900460ff1615610e1c576040517f08c379a0000000000000000000000000000000000000000000000000000000008152600401610e139061298c565b60405180910390fd5b662386f26fc10000341015610e66576040517f08c379a0000000000000000000000000000000000000000000000000000000008152600401610e5d906129f8565b60405180910390fd5b34600860008581526020019081526020016000206006016000828254610e8c9190612639565b92505081905550600860008481526020019081526020016000206003016000815480929190610eba906125f0565b919050555060016006600085815260200190815260200160002060003373ffffffffffffffffffffffffffffffffffffffff1673ffffffffffffffffffffffffffffffffffffffff16815260200190815260200160002060000160006101000a81548160ff0219169083151502179055506007600084815260200190815260200160002060008381526020019081526020016000206002016000815480929190610f63906125f0565b91905055503373ffffffffffffffffffffffffffffffffffffffff16837f030b0f8dcd86a031eddb071f91882edeac8173663ba775713b677b42b51be44b60405160405180910390a3505050565b3373ffffffffffffffffffffffffffffffffffffffff1660008054906101000a900473ffffffffffffffffffffffffffffffffffffffff1673ffffffffffffffffffffffffffffffffffffffff161461103f576040517f08c379a0000000000000000000000000000000000000000000000000000000008152600401611036906125a1565b60405180910390fd5b6000600181111561105357611052611d77565b5b6008600084815260200190815260200160002060020160009054906101000a900460ff16600181111561108957611088611d77565b5b146110c9576040517f08c379a00000000000000000000000000000000000000000000000000000000081526004016110c090612a64565b60405180910390fd5b8073ffffffffffffffffffffffffffffffffffffffff166108fc60086000858152602001908152602001600020600701549081150290604051600060405180830381858888f19350505050158015611125573d6000803e3d6000fd5b50600060086000848152602001908152602001600020600701819055505050565b606060005b60086000848152602001908152602001600020600401548110156111f65760086000848152602001908152602001600020600501600760008581526020019081526020016000206000838152602001908152602001600020600001908060018154018082558091505060019003906000526020600020016000909190919091509080546111d7906126be565b6111e29291906119be565b5080806111ee906125f0565b91505061114b565b5060086000838152602001908152602001600020600501805480602002602001604051908101604052809291908181526020016000905b828210156112d957838290600052602060002001805461124c906126be565b80601f0160208091040260200160405190810160405280929190818152602001828054611278906126be565b80156112c55780601f1061129a576101008083540402835291602001916112c5565b820191906000526020600020905b8154815290600101906020018083116112a857829003601f168201915b50505050508152602001906001019061122d565b505050509050919050565b6112ec611a4b565b600860008360ff1681526020019081526020016000206040518061010001604052908160008201805461131e906126be565b80601f016020809104026020016040519081016040528092919081815260200182805461134a906126be565b80156113975780601f1061136c57610100808354040283529160200191611397565b820191906000526020600020905b81548152906001019060200180831161137a57829003601f168201915b50505050508152602001600182015481526020016002820160009054906101000a900460ff1660018111156113cf576113ce611d77565b5b60018111156113e1576113e0611d77565b5b8152602001600382015481526020016004820154815260200160058201805480602002602001604051908101604052809291908181526020016000905b828210156114ca57838290600052602060002001805461143d906126be565b80601f0160208091040260200160405190810160405280929190818152602001828054611469906126be565b80156114b65780601f1061148b576101008083540402835291602001916114b6565b820191906000526020600020905b81548152906001019060200180831161149957829003601f168201915b50505050508152602001906001019061141e565b505050508152602001600682015481526020016007820154815250509050919050565b600180811115611500576114ff611d77565b5b6008600083815260200190815260200160002060020160009054906101000a900460ff16600181111561153657611535611d77565b5b14611576576040517f08c379a000000000000000000000000000000000000000000000000000000000815260040161156d90612ad0565b60405180910390fd5b42600860008381526020019081526020016000206001015411156115cf576040517f08c379a00000000000000000000000000000000000000000000000000000000081526004016115c690612b3c565b60405180910390fd5b60006008600083815260200190815260200160002060020160006101000a81548160ff0219169083600181111561160957611608611d77565b5b021790555060005b600860008381526020019081526020016000206004015481101561172a57600554600760008481526020019081526020016000206000838152602001908152602001600020600201541115611717576007600083815260200190815260200160002060008281526020019081526020016000206002015460058190555060076000838152602001908152602001600020600082815260200190815260200160002060010160009054906101000a900473ffffffffffffffffffffffffffffffffffffffff16600160006101000a81548173ffffffffffffffffffffffffffffffffffffffff021916908373ffffffffffffffffffffffffffffffffffffffff1602179055505b8080611722906125f0565b915050611611565b50600a600860008381526020019081526020016000206006015461174e9190612b8b565b600860008381526020019081526020016000206007018190555060086000828152602001908152602001600020600701546008600083815260200190815260200160002060060160008282546117a49190612834565b92505081905550600160009054906101000a900473ffffffffffffffffffffffffffffffffffffffff1673ffffffffffffffffffffffffffffffffffffffff166108fc60086000848152602001908152602001600020600601549081150290604051600060405180830381858888f19350505050158015611829573d6000803e3d6000fd5b506000600860008381526020019081526020016000206006018190555060006008600083815260200190815260200160002060020160006101000a81548160ff021916908360018111156118805761187f611d77565b5b0217905550807f82aca8eb4571ce61bc6eaf5325c028f67ea0502f8ae1df1062c43ea27b2cedc56008600084815260200190815260200160002060020160009054906101000a900460ff166040516118d89190612bbc565b60405180910390a250565b8280546118ef906126be565b90600052602060002090601f0160209004810192826119115760008555611958565b82601f1061192a57805160ff1916838001178555611958565b82800160010185558215611958579182015b8281111561195757825182559160200191906001019061193c565b5b5090506119659190611aa2565b5090565b60405180602001604052806000151581525090565b604051806080016040528060608152602001600073ffffffffffffffffffffffffffffffffffffffff168152602001600081526020016000151581525090565b8280546119ca906126be565b90600052602060002090601f0160209004810192826119ec5760008555611a3a565b82601f106119fd5780548555611a3a565b82800160010185558215611a3a57600052602060002091601f016020900482015b82811115611a39578254825591600101919060010190611a1e565b5b509050611a479190611aa2565b5090565b604051806101000160405280606081526020016000815260200160006001811115611a7957611a78611d77565b5b815260200160008152602001600081526020016060815260200160008152602001600081525090565b5b80821115611abb576000816000905550600101611aa3565b5090565b6000604051905090565b600080fd5b600080fd5b600080fd5b600080fd5b6000601f19601f8301169050919050565b7f4e487b7100000000000000000000000000000000000000000000000000000000600052604160045260246000fd5b611b2682611add565b810181811067ffffffffffffffff82111715611b4557611b44611aee565b5b80604052505050565b6000611b58611abf565b9050611b648282611b1d565b919050565b600067ffffffffffffffff821115611b8457611b83611aee565b5b611b8d82611add565b9050602081019050919050565b82818337600083830152505050565b6000611bbc611bb784611b69565b611b4e565b905082815260208101848484011115611bd857611bd7611ad8565b5b611be3848285611b9a565b509392505050565b600082601f830112611c0057611bff611ad3565b5b8135611c10848260208601611ba9565b91505092915050565b600060208284031215611c2f57611c2e611ac9565b5b600082013567ffffffffffffffff811115611c4d57611c4c611ace565b5b611c5984828501611beb565b91505092915050565b6000819050919050565b611c7581611c62565b82525050565b6000602082019050611c906000830184611c6c565b92915050565b611c9f81611c62565b8114611caa57600080fd5b50565b600081359050611cbc81611c96565b92915050565b600060208284031215611cd857611cd7611ac9565b5b6000611ce684828501611cad565b91505092915050565b600081519050919050565b600082825260208201905092915050565b60005b83811015611d29578082015181840152602081019050611d0e565b83811115611d38576000848401525b50505050565b6000611d4982611cef565b611d538185611cfa565b9350611d63818560208601611d0b565b611d6c81611add565b840191505092915050565b7f4e487b7100000000000000000000000000000000000000000000000000000000600052602160045260246000fd5b60028110611db757611db6611d77565b5b50565b6000819050611dc882611da6565b919050565b6000611dd882611dba565b9050919050565b611de881611dcd565b82525050565b600060e0820190508181036000830152611e08818a611d3e565b9050611e176020830189611c6c565b611e246040830188611ddf565b611e316060830187611c6c565b611e3e6080830186611c6c565b611e4b60a0830185611c6c565b611e5860c0830184611c6c565b98975050505050505050565b60008060408385031215611e7b57611e7a611ac9565b5b6000611e8985828601611cad565b9250506020611e9a85828601611cad565b9150509250929050565b600073ffffffffffffffffffffffffffffffffffffffff82169050919050565b6000611ecf82611ea4565b9050919050565b611edf81611ec4565b82525050565b60008115159050919050565b611efa81611ee5565b82525050565b60006080820190508181036000830152611f1a8187611d3e565b9050611f296020830186611ed6565b611f366040830185611c6c565b611f436060830184611ef1565b95945050505050565b611f5581611ec4565b8114611f6057600080fd5b50565b600081359050611f7281611f4c565b92915050565b600080600060608486031215611f9157611f90611ac9565b5b6000611f9f86828701611cad565b935050602084013567ffffffffffffffff811115611fc057611fbf611ace565b5b611fcc86828701611beb565b9250506040611fdd86828701611f63565b9150509250925092565b600060ff82169050919050565b611ffd81611fe7565b811461200857600080fd5b50565b60008135905061201a81611ff4565b92915050565b600061202b82611ea4565b9050919050565b61203b81612020565b811461204657600080fd5b50565b60008135905061205881612032565b92915050565b6000806040838503121561207557612074611ac9565b5b60006120838582860161200b565b925050602061209485828601612049565b9150509250929050565b6120a781611ee5565b82525050565b6020820160008201516120c3600085018261209e565b50505050565b60006020820190506120de60008301846120ad565b92915050565b6120ed81612020565b82525050565b600060208201905061210860008301846120e4565b92915050565b6000806040838503121561212557612124611ac9565b5b60006121338582860161200b565b925050602061214485828601611cad565b9150509250929050565b600082825260208201905092915050565b600061216a82611cef565b612174818561214e565b9350612184818560208601611d0b565b61218d81611add565b840191505092915050565b6121a181611ec4565b82525050565b6121b081611c62565b82525050565b600060808301600083015184820360008601526121d3828261215f565b91505060208301516121e86020860182612198565b5060408301516121fb60408601826121a7565b50606083015161220e606086018261209e565b508091505092915050565b6000602082019050818103600083015261223381846121b6565b905092915050565b6000806040838503121561225257612251611ac9565b5b600061226085828601611cad565b925050602061227185828601612049565b9150509250929050565b60006020820190506122906000830184611ef1565b92915050565b600080604083850312156122ad576122ac611ac9565b5b60006122bb85828601611cad565b92505060206122cc85828601611f63565b9150509250929050565b600081519050919050565b600082825260208201905092915050565b6000819050602082019050919050565b600061230e838361215f565b905092915050565b6000602082019050919050565b600061232e826122d6565b61233881856122e1565b93508360208202850161234a856122f2565b8060005b8581101561238657848403895281516123678582612302565b945061237283612316565b925060208a0199505060018101905061234e565b50829750879550505050505092915050565b600060208201905081810360008301526123b28184612323565b905092915050565b6000602082840312156123d0576123cf611ac9565b5b60006123de8482850161200b565b91505092915050565b6123f081611dcd565b82525050565b600082825260208201905092915050565b6000612412826122d6565b61241c81856123f6565b93508360208202850161242e856122f2565b8060005b8581101561246a578484038952815161244b8582612302565b945061245683612316565b925060208a01995050600181019050612432565b50829750879550505050505092915050565b600061010083016000830151848203600086015261249a828261215f565b91505060208301516124af60208601826121a7565b5060408301516124c260408601826123e7565b5060608301516124d560608601826121a7565b5060808301516124e860808601826121a7565b5060a083015184820360a08601526125008282612407565b91505060c083015161251560c08601826121a7565b5060e083015161252860e08601826121a7565b508091505092915050565b6000602082019050818103600083015261254d818461247c565b905092915050565b7f4e6f206163636573730000000000000000000000000000000000000000000000600082015250565b600061258b600983611cfa565b915061259682612555565b602082019050919050565b600060208201905081810360008301526125ba8161257e565b9050919050565b7f4e487b7100000000000000000000000000000000000000000000000000000000600052601160045260246000fd5b60006125fb82611c62565b91507fffffffffffffffffffffffffffffffffffffffffffffffffffffffffffffffff82141561262e5761262d6125c1565b5b600182019050919050565b600061264482611c62565b915061264f83611c62565b9250827fffffffffffffffffffffffffffffffffffffffffffffffffffffffffffffffff03821115612684576126836125c1565b5b828201905092915050565b7f4e487b7100000000000000000000000000000000000000000000000000000000600052602260045260246000fd5b600060028204905060018216806126d657607f821691505b602082108114156126ea576126e961268f565b5b50919050565b7f566f74696e67206973206e6f7420414354495645000000000000000000000000600082015250565b6000612726601483611cfa565b9150612731826126f0565b602082019050919050565b6000602082019050818103600083015261275581612719565b9050919050565b7f537461727420766f74696e672066697273742e00000000000000000000000000600082015250565b6000612792601383611cfa565b915061279d8261275c565b602082019050919050565b600060208201905081810360008301526127c181612785565b9050919050565b7f546865206164647265737320616c726561647920657869737473000000000000600082015250565b60006127fe601a83611cfa565b9150612809826127c8565b602082019050919050565b6000602082019050818103600083015261282d816127f1565b9050919050565b600061283f82611c62565b915061284a83611c62565b92508282101561285d5761285c6125c1565b5b828203905092915050565b7f566f74696e6720646f6573206e6f742065786973740000000000000000000000600082015250565b600061289e601583611cfa565b91506128a982612868565b602082019050919050565b600060208201905081810360008301526128cd81612891565b9050919050565b7f54686520766f74696e67206973206f7665720000000000000000000000000000600082015250565b600061290a601283611cfa565b9150612915826128d4565b602082019050919050565b60006020820190508181036000830152612939816128fd565b9050919050565b7f4861766520796f7520616c726561647920766f74656400000000000000000000600082015250565b6000612976601683611cfa565b915061298182612940565b602082019050919050565b600060208201905081810360008301526129a581612969565b9050919050565b7f496e73756666696369656e742066756e647320666f7220766f74696e67000000600082015250565b60006129e2601d83611cfa565b91506129ed826129ac565b602082019050919050565b60006020820190508181036000830152612a11816129d5565b9050919050565b7f566f74696e67206973207374696c6c2041435449564500000000000000000000600082015250565b6000612a4e601683611cfa565b9150612a5982612a18565b602082019050919050565b60006020820190508181036000830152612a7d81612a41565b9050919050565b7f566f74696e67206973207374696c6c20756e6465727761792e00000000000000600082015250565b6000612aba601983611cfa565b9150612ac582612a84565b602082019050919050565b60006020820190508181036000830152612ae981612aad565b9050919050565b7f566f74696e67206973206163746976652e000000000000000000000000000000600082015250565b6000612b26601183611cfa565b9150612b3182612af0565b602082019050919050565b60006020820190508181036000830152612b5581612b19565b9050919050565b7f4e487b7100000000000000000000000000000000000000000000000000000000600052601260045260246000fd5b6000612b9682611c62565b9150612ba183611c62565b925082612bb157612bb0612b5c565b5b828204905092915050565b6000602082019050612bd16000830184611ddf565b9291505056fea264697066735822122078d56e7828485d30562e123d4ab67cd31034d9e4507b75e3863cb7ece48bbbfd64736f6c634300080b0033",
  "immutableReferences": {},
  "source": "// SPDX-License-Identifier: MIT\r\npragma solidity >=0.4.22 <0.9.0;\r\n\r\ncontract Voting {\r\n  address public owner;\r\n  address payable winCandidate;\r\n\r\n  uint256 private _currentElectionId;\r\n  uint256 public totalTime = 3 days;\r\n  uint256 public endTime;\r\n  uint256 public maxVotes;\r\n  \r\n  constructor()  {\r\n    owner = msg.sender;\r\n  }\r\n\r\n  mapping(uint256 => mapping(address => Vote)) public _votes;\r\n  mapping(uint256 => mapping(uint256 => Candidate)) public _candidate;\r\n  mapping(uint256 => Election) public _election;\r\n\r\n  \r\n\r\n  modifier requireOwner() {\r\n    require(owner == msg.sender, \"No access\");\r\n    _;\r\n  }\r\n\r\n  enum ElectionStatus {\r\n    COMPLETED,\r\n    ACTIVE\r\n  }\r\n\r\n  event NewElection(uint256 indexed index);\r\n  event Voted(uint indexed id, address indexed voter);\r\n  event Withdraw(address indexed account, uint256 amount);\r\n  event ElectionFinished(uint256 indexed id,ElectionStatus electionStatus);\r\n\r\n  struct Candidate {\r\n    string name;\r\n    address payable candidateAddress;\r\n    uint numberVotes;\r\n    bool asd;\r\n  }\r\n  struct Vote {\r\n    bool isVoted;\r\n    //address voteAddress;\r\n  }\r\n  struct Election {\r\n    string description;\r\n    uint256 endTimeOfElecting;\r\n    ElectionStatus status;\r\n    uint256 numberOfVotes;\r\n    uint256 numberOfCandidate;\r\n    string[] listCandidate; \r\n    uint256 deposit;\r\n    uint256 comission;\r\n  }\r\n\r\n  function createElection(string memory description) public requireOwner returns (uint256){\r\n    uint256 electionId =_currentElectionId++;\r\n    Election storage election = _election[electionId];\r\n    election.description = description;\r\n    election.endTimeOfElecting = block.timestamp + totalTime;\r\n    election.status = ElectionStatus.ACTIVE;\r\n\r\n    emit NewElection(electionId);\r\n    return electionId;\r\n  }\r\n\r\n \r\n  function addCandidate(uint electionId,string memory _name, address payable _adrCandidate) public {\r\n    require(_election[electionId].status==ElectionStatus.ACTIVE,\"Voting is not ACTIVE\");\r\n    require(_election[electionId].endTimeOfElecting >= block.timestamp,\"Start voting first.\");\r\n    \r\n    for (uint256 i = 0; i < _election[electionId].numberOfCandidate; i++) {\r\n      if(_adrCandidate == _candidate[electionId][i].candidateAddress){\r\n        revert(\"The address already exists\");\r\n      }\r\n    }\r\n    _candidate[electionId][_election[electionId].numberOfCandidate].name = _name;\r\n    _candidate[electionId][_election[electionId].numberOfCandidate].candidateAddress = _adrCandidate;\r\n\r\n    _election[electionId].numberOfCandidate++;\r\n  }\r\n\r\n  function vote(uint electionId, uint candidate) public payable {\r\n    require(_currentElectionId >= electionId, \"Voting does not exist\");\r\n    Election storage election = _election[electionId];\r\n    require(election.endTimeOfElecting >= block.timestamp,\"The voting is over\");\r\n    require(!_votes[electionId][msg.sender].isVoted,\"Have you already voted\");\r\n    require(msg.value >= .01 ether,\"Insufficient funds for voting\" );\r\n\r\n    _election[electionId].deposit += msg.value;\r\n    _election[electionId].numberOfVotes++;\r\n\r\n    _votes[electionId][msg.sender].isVoted = true;\r\n    //_votes[electionId][msg.sender].voteAddress = msg.sender;\r\n\r\n    _candidate[electionId][candidate].numberVotes++;\r\n\r\n    emit Voted(electionId, msg.sender);\r\n  }\r\n\r\n  //  \r\n  function listCandidate(uint256 electionId) external returns (string[] memory){\r\n    for (uint256 i = 0; i < _election[electionId].numberOfCandidate; i++) {\r\n    _election[electionId].listCandidate.push(_candidate[electionId][i].name);\r\n    }\r\n    return _election[electionId].listCandidate;\r\n  }\r\n\r\n  //  \r\n  function timeLeft (uint elactionID) public returns(uint256){\r\n    endTime = _election[elactionID].endTimeOfElecting - block.timestamp;\r\n    return endTime;\r\n  }\r\n  \r\n  //  \r\n  function infCandidate(uint8 electionId, uint candidate) external view returns (Candidate memory candidates){\r\n    return _candidate[electionId][candidate];\r\n  }\r\n\r\n  //    \r\n  function infVoter(uint8 electionId,address voter) external view returns (Vote memory votes){\r\n    return _votes[electionId][voter];\r\n  }\r\n\r\n  //    \r\n  function infElaction(uint8 electionId) external view returns (Election memory election){\r\n    return _election[electionId];\r\n  }\r\n \r\n  // \r\n  function withdrawComission(uint electionId, address payable _to) public requireOwner{\r\n    require(_election[electionId].status==ElectionStatus.COMPLETED,\"Voting is still ACTIVE\");\r\n    _to.transfer(_election[electionId].comission);\r\n    _election[electionId].comission = 0;\r\n  }\r\n\r\n  //      \r\n  function finishElection(uint256 electionId) public {\r\n    require(_election[electionId].status == ElectionStatus.ACTIVE,\"Voting is still underway.\");\r\n    require(_election[electionId].endTimeOfElecting <= block.timestamp,\"Voting is active.\");\r\n    _election[electionId].status = ElectionStatus.COMPLETED;\r\n\r\n    for (uint256 i = 0; i < _election[electionId].numberOfCandidate; i++) {\r\n      if(_candidate[electionId][i].numberVotes > maxVotes){\r\n        maxVotes = _candidate[electionId][i].numberVotes;\r\n        winCandidate = _candidate[electionId][i].candidateAddress;\r\n      }\r\n    }\r\n\r\n    _election[electionId].comission = _election[electionId].deposit / 10;\r\n    _election[electionId].deposit -= _election[electionId].comission;\r\n\r\n    winCandidate.transfer(_election[electionId].deposit);\r\n\r\n    _election[electionId].deposit = 0;\r\n\r\n    _election[electionId].status = ElectionStatus.COMPLETED;\r\n    emit ElectionFinished(electionId,_election[electionId].status);\r\n  } \r\n}",
  "sourcePath": "C:\\Users\\inin_\\Documents\\VS Code\\Voting\\contracts\\Voting.sol",
  "compiler": {
    "name": "solc",
    "version": "0.8.11+commit.d7f03943.Emscripten.clang"
  },
  "schemaVersion": "3.4.4",
  "updatedAt": "2022-04-03T10:47:01.638Z",
  "devdoc": {
    "kind": "dev",
    "methods": {},
    "version": 1
  },
  "userdoc": {
    "kind": "user",
    "methods": {},
    "version": 1
  }
}